:020000040800F2
:10000000A0E7002069020008953600086F2B000861
:10001000213400080F0A000851BF0008000000004A
:100020000000000000000000000000004D890008F2
:1000300015250008000000005F05000881A40008E5
:10004000830200088302000883020008830200087C
:10005000830200088302000883020008830200086C
:10006000830200088302000883020008830200085C
:1000700083020008830200088D1C0008B51C0008DC
:1000800083020008ED1C00088302000883020008B8
:10009000150B000883020008830200088302000891
:1000A00029A60008830200088302000883020008D2
:1000B00071A6000829A8000883020008830200082E
:1000C00083020008830200088302000883020008FC
:1000D000830200088302000815B60008D5B700089F
:1000E00083020008830200088302000883020008DC
:1000F00083020008830200088302000883020008CC
:1001000083020008830200088302000883020008BB
:1001100001B400088302000883020008830200087B
:10012000151D0008830200088302000883020008EE
:10013000830200088302000883020008830200088B
:10014000890D00088302000883020008830200086A
:100150008302000883020008811D0008C9BA000854
:10016000830200088302000883020008830200085B
:10017000830200088302000883020008830200084B
:10018000830200088302000800F002F800F05CF827
:100190000AA090E8000C82448344AAF10107DA45E2
:1001A00001D100F051F8AFF2090EBAE80F0013F0D8
:1001B000010F18BFFB1A43F001031847DCEB0000E6
:1001C000FCEB00000A444FF0000C10F8013B13F068
:1001D000070408BF10F8014B1D1108BF10F8015BA0
:1001E000641E05D010F8016B641E01F8016BF9D193
:1001F00013F0080F1EBF10F8014BAD1C0C1B09D1EA
:100200006D1E58BF01F801CBFAD505E014F8016B5B
:1002100001F8016B6D1EF9D59142D6D370470000ED
:100220000023002400250026103A28BF78C1FBD8FF
:10023000520728BF30C148BF0B6070471FB50EF092
:1002400099FC1FBD10B510BD00F03EF91146FFF737
:10025000F5FF0DF0A1FE00F05CF903B4FFF7F2FF2B
:1002600003BC0CF033FF00000948804709480047F1
:10027000FEE7FEE7FEE7FEE7FEE7FEE7FEE7FEE756
:10028000FEE7FEE704480549054A064B70470000B3
:100290009DA4000889010008A0D90020A0E7002043
:1002A000A0DB0020A0DB002072B6704762B670476A
:1002B000EFF3108072B6704780F31088704730BF3C
:1002C000704720BF7047B0FA80F0704790FAA0F0F6
:1002D000B0FA80F0704790FAA0F07047704730B5E0
:1002E00005460B462A4613F8014B12F8010B08B1DC
:1002F000A042F8D01CB1002802D06D1CF1E72846BE
:1003000030BD10B5431C02E010F8011B71B181072C
:10031000FAD14FF0013202C88C1A8C4314EAC21190
:10032000F9D0C01A0A0603D0C01E10BDC01A10BDF5
:100330000A0401D0801E10BD0902FCD0401E10BD71
:10034000032A40F2308010F0030C00F0158011F801
:10035000013BBCF1020F624498BF11F801CB00F8D9
:10036000013B38BF11F8013BA2F1040298BF00F82D
:1003700001CB38BF00F8013B11F0030300F02580EA
:10038000083AC0F0088051F8043B083A51F804CB11
:10039000A0E80810F5E7121D5CBF51F8043B40F8D7
:1003A000043BAFF30080D20724BF11F8013B11F8E2
:1003B00001CB48BF11F8012B24BF00F8013B00F826
:1003C00001CB48BF00F8012B704710B5203AC0F0B0
:1003D0000B80B1E81850203AA0E81850B1E8185046
:1003E000A0E81850BFF4F5AF5FEA027C24BFB1E883
:1003F0001850A0E8185044BF18C918C0BDE81040F4
:100400005FEA827C24BF51F8043B40F8043B08BFFC
:100410007047D20728BF31F8023B48BF11F8012BC3
:1004200028BF20F8023B48BF00F8012B70474FF06F
:1004300000020429C0F0128010F0030C00F01B80B1
:10044000CCF1040CBCF1020F18BF00F8012BA8BFBF
:1004500020F8022BA1EB0C0100F00DB85FEAC17C83
:1004600024BF00F8012B00F8012B48BF00F8012B36
:1004700070474FF0000200B5134694469646203967
:1004800022BFA0E80C50A0E80C50B1F12001BFF44D
:10049000F7AF090728BFA0E80C5048BF0CC05DF8B3
:1004A00004EB890028BF40F8042B08BF704748BF01
:1004B00020F8022B11F0804F18BF00F8012B704775
:1004C0007047704770477047754600F029F8AE4690
:1004D00005006946534620F00700854618B020B550
:1004E000FFF7D0FEBDE820404FF000064FF00007B8
:1004F0004FF000084FF0000B21F00701AC46ACE8CC
:10050000C009ACE8C009ACE8C009ACE8C0098D4638
:1005100070470446AFF300802046FFF79EFE0000C0
:10052000004870473CD9002022484FF6FF71017007
:10053000002080F309882048016881F308881F485B
:100540004FF08051016062B6FEE71C484FF08051C9
:100550000160704719484FF080510160704772B6D2
:10056000EFF3098050B11EF0100F08BF20ED108A84
:10057000203880E8F00F12490968086000B511487A
:1005800080475DF804EB104810490A7802700C4867
:100590000F490A680260106890E8F00F20301EF0E2
:1005A000100F08BFB0EC108A80F309884EF0040EDB
:1005B00062B6704722ED00E03003002004ED00E059
:1005C00028030020294A0008B6020020B7020020B4
:1005D0002C03002000B58DB00121042007F048FD58
:1005E0000121080207F074FD0E200B9003208DF806
:1005F000300000208DF833000BA9204802F0FAF8F3
:10060000002007900A9009904FF48030089007A8C6
:1006100000F044F80020019001208DF808008DF8CA
:10062000090000200390059003208DF8180001A90F
:10063000134800F061F8072301220B21104800F055
:1006400085F8072302220C210D4800F07FF80723CC
:1006500003220D210A4800F079F80121084800F032
:1006600040F80121064800F031F80121044800F06B
:1006700009F8034800F0C6F80DB000BD00080240BC
:100680000020014021B1826842F00102826003E053
:10069000826822F001028260704700000021084A4F
:1006A0001168084A1140D0E900231A4383681A43AD
:1006B000C3681A431143044AC2F804137047000088
:1006C00004230140E030FCFF0020014021B182689A
:1006D00042F48072826003E0826822F48072826059
:1006E000704721B1826842F40072826003E0826840
:1006F00022F400728260704730B502460020002369
:100700005068104C20400D790C6844EA05242043C1
:10071000506090680C4C2040D1E903542C438D6804
:100720002C434D7944EA450420439060D06A20F47C
:1007300070000C7D641EE4B2234340EA0350D06293
:1007400030BD0000FFFEFFFCFDF7FFC0F0B5044622
:100750000D4600200021092D11DDE068A5F10A06F3
:1007600006EB4607072606FA07F18843A5F10A06B5
:1007700006EB460603FA06F10843E0600CE0206948
:1007800005EB4507072606FA07F1884305EB450602
:1007900003FA06F108432061072A0FDA606B561E40
:1007A00006EB86071F2606FA07F18843561E06EB5E
:1007B000860605FA06F10843606322E00D2A0FDA87
:1007C000206BD61F06EB86071F2606FA07F1884323
:1007D000D61F06EB860605FA06F10843206310E0F3
:1007E000E06AA2F10D0606EB86071F2606FA07F15E
:1007F0008843A2F10D0606EB860605FA06F10843CA
:10080000E062F0BD816841F0804181607047000086
:1008100070B53F480078801E81B23E4800F0D0FDA0
:100820000446E5B2260A3A480078801E3949085C39
:10083000A84234D136480078401E085CB0422ED120
:1008400008464078042817D006DC01280BD002287F
:100850000CD003281CD10CE0052810D0062811D09C
:10086000102815D111E007F0B7FC17E007F032FDB2
:1008700014E007F0CDFD11E007F028FE0EE007F0D0
:10088000A1FE0BE007F0E2FE08E007F02DFF05E017
:100890002049487804210DF0C7F900BF36E01D4813
:1008A000407804281DD006DC01280BD002280ED089
:1008B00003282AD110E0052818D006281BD01028BC
:1008C00023D11DE0082101200DF0AEF91DE0082123
:1008D00002200DF0A9F918E0082103200DF0A4F979
:1008E00013E0082104200DF09FF90EE008210520F7
:1008F0000DF09AF909E0082106200DF095F904E0C1
:10090000082110200DF090F900BF00BF70BD00005D
:100910001C0000201277002000BF4DE0274800781F
:1009200090B92748006810B12648407D60B100208A
:10093000254908702549087001202049087024497C
:10094000087024A00DF010FC1C48007801282DD15F
:100950001B48001F006810B11A48807D70B101204B
:100960001A4908700A230022114610460DF0AEF80D
:1009700001201A4908701AA00DF0F6FB104810303B
:100980000068012806D1104908701449087016A0A3
:100990000DF0EAFB0A480C300068012806D10A492C
:1009A00008700E49087010A00DF0DEFB0A2300222B
:1009B000114610460DF08AF8B0E70000CF01002084
:1009C00014824242789D0020DC010020D0010020EA
:1009D000CB010020C6F4B6AF00000000CC0100201F
:1009E000CDA3D6B900000000BCB1CDA3A3ACC7EB2A
:1009F000B0B4C6F4B6AFBCFCC6F4B6AFA3A1000059
:100A00001FB5684607F074FB019804B010BD00BF25
:100A1000FEE700002DE9F0418AB004460D46164677
:100A20001F46DDF840800121084607F021FB012127
:100A3000480607F02DFB4FF4C050089002208DF8B7
:100A4000240000208DF8260003208DF825000120C9
:100A50008DF8270008A92D4801F0CCFE09220B21B2
:100A60002A4801F00FFF09220C21284801F00AFF53
:100A700000208DF81A008DF81B008DF81C00012055
:100A80008DF81D0000208DF81E008DF81F008DF8D8
:100A900016808DF817408DF818608DF81950ADF854
:100AA000147005A91A4800F054FA00208DF80E00C1
:100AB0008DF80F0001208DF810000020ADF8040023
:100AC000ADF80600ADF80800ADF80A00ADF80C006E
:100AD00001208DF8110001A800F0AEF901220221D9
:100AE0000B4800F02DFA14208DF8000001208DF83D
:100AF000010000208DF8020001208DF803006846F7
:100B000002F0CAFD00200AB0BDE8F08100000240FA
:100B10000064004010B500243A4A00213A4800F031
:100B2000A2FA38480068122829D100BF0BE03548E6
:100B3000C07A80F0FF00204100F0010080F0010049
:100B400032490855641C082CF1DB00240DE02D48C7
:100B5000007B80F0FF00204100F0010080F00101E7
:100B60002A4A04F108001154641C042CEFDB2548C8
:100B7000407B552803D10421254800F04DF8214839
:100B8000006813281CD11F48407B2249A1F84E0061
:100B90001C48807BA1F89E001A48C07BA1F8500039
:100BA0001848007BA1F856001648C07AA1F8A200A8
:100BB0001448007CA1F85A001248407CA1F8A60015
:100BC0001048006814281CD10E48407B1149A1F838
:100BD00052000C48807BA1F8A0000A48C07BA1F815
:100BE00054000848C07AA1F8A4000648007BA1F888
:100BF00058000448407CA1F8A8000248007CA1F8F5
:100C00005C0010BD989C002000640040440000205F
:100C1000D2010020F89D0020F0B585B007460D46B2
:100C2000002410200090019000208DF808008DF81D
:100C300009008DF80A5000BF05E0395D0DF10B0089
:100C40000155601C84B2AC42F7DB69460C4800F0E9
:100C500082FA0646002401E0601C84B2314608484E
:100C600000F00CFB18B940F6FF708442F4DB40F64C
:100C7000FF70844202DB012005B0F0BD0020FBE7DD
:100C8000006400402DE9F0418AB004460D46164646
:100C90001F46DDF840800121022007F0E9F901211B
:100CA0004FF0C06007F0F4F96020089002208DF842
:100CB000240000208DF8260003208DF82500012057
:100CC0008DF8270008A92E4801F094FD092205217E
:100CD0002B4801F0D7FD09220621294801F0D2FD59
:100CE00000208DF81A008DF81B008DF81C000120E3
:100CF0008DF81D0000208DF81E008DF81F008DF866
:100D000016808DF817408DF818608DF81950ADF8E1
:100D1000147005A91B4800F01CF90E208DF80E0078
:100D200000208DF80F0001208DF810000020ADF894
:100D30000400ADF80600ADF80800ADF80A00ADF803
:100D40000C0001208DF8110001A800F075F80122B7
:100D500002210C4800F0F4F840208DF8000001203A
:100D60008DF8010002208DF8020001208DF80300AB
:100D7000684602F091FC00200AB0BDE8F081000056
:100D8000000402400068004000B587B0224A0021FC
:100D9000224800F068F92048006801281AD11E484E
:100DA000C07A1F490880084600881E49A1F89C00A7
:100DB0001B4801781C4803780522684601F042FC74
:100DC0001C2269461948FFF700FB1848808A15491C
:100DD000A1F89A001048006802281AD10E48C07A7B
:100DE00013490880084600880E49A1F848001048B9
:100DF00001780D4803780522684601F023FC1C2287
:100E000069460C48FFF7E1FA0A48808A0549A1F8CB
:100E10004A0007B000BD0000989C00200068004018
:100E200052000020F89D00201C020020C89C0020D9
:100E300050000020AC9C002010B50021837A0122D4
:100E400002FA03F13D4A126842F001023B4B1A607C
:100E50003A4A1C3212688A43384B1C331A60027BB0
:100E6000CAB9364A0C3212688A43344B0C331A60C2
:100E70004288C38842EA0343304A4032847A42F8C7
:100E800034300288838842EA03432C4A4032847A11
:100E900002EBC4025360027B012A19D1274A0C32AB
:100EA00012680A43254B0C331A604288038842EAD1
:100EB0000343224A4032847A42F83430C28883881D
:100EC00042EA03431D4A4032847A02EBC402536073
:100ED000C27A3AB9194A121D12688A43174B1B1D70
:100EE0001A6006E0154A121D12680A43134B1B1DB7
:100EF0001A60028932B9114A143212688A430F4BC0
:100F000014331A600289012A06D10C4A143212687D
:100F10000A430A4B14331A60427B012A06D1074A5E
:100F20001C3212680A43054B1C331A60034A1268CC
:100F300022F00102014B1A6010BD00000066004063
:100F40001AB143690B43436102E043698B43436138
:100F5000704730B5024600200023146824F00204D4
:100F60001460146844F00104146000E05B1C5468D1
:100F700004F001041CB94FF6FF74A342F6D1546883
:100F800004F001040CB900206CE08C79012C04D130
:100F9000146844F08004146003E0146824F08004B2
:100FA0001460CC79012C04D1146844F0400414601E
:100FB00003E0146824F0400414600C7A012C04D17E
:100FC000146844F02004146003E0146824F0200442
:100FD00014604C7A012C04D1146844F0100414609D
:100FE00003E0146824F0100414608C7A012C04D1FE
:100FF000146844F00804146003E0146824F0080442
:101000001460CC7A012C04D1146844F004041460F8
:1010100003E0146824F0040414608C78A407CD78ED
:1010200044EA05640D7944EA05444D7944EA0554DF
:101030000D886D1E2C43D461146824F001041460E3
:10104000002300E05B1C546804F001041CB14FF65F
:10105000FF74A342F6D1546804F001040CB10020DF
:1010600000E0012030BD10B500F5D87303EB01138B
:101070001B6803F004031372137A53B900F5D87395
:1010800003EB01131B6840F2FF7404EA535313602F
:1010900009E000F5D87303EB01131B686FF060449F
:1010A00004EAD303536000F5D87303EB01131B6804
:1010B00003F00203537200F5D87303EB01135B686E
:1010C00003F00F03937200F5D87303EB01135B6811
:1010D0001B0AD37400F5D87303EB01139B68D3721A
:1010E00000F5D87303EB01139B681C0A147300F519
:1010F000D87303EB01139B681C0C547300F5D87371
:1011000003EB01139B681B0E937300F5D87303EB7D
:101110000113DB68D37300F5D87303EB0113DB68AD
:101120001C0A147400F5D87303EB0113DB681C0C64
:10113000547400F5D87303EB0113DB681B0E937432
:1011400021B9C36843F02003C36003E0036943F09F
:101150002003036110BD10B502460020936803F020
:101160008063B3F1806F00D110E0936803F00063F7
:10117000B3F1006F01D1012008E0936803F08053C0
:10118000B3F1805F01D1022000E00420042874D074
:1011900002F5C07303EB00131B6803F0010402F5B2
:1011A000C07303EB00131C600B7A7BB94B7A0C887D
:1011B00043EA445302F5C07404EB0014246823434B
:1011C00002F5C07404EB0014236010E00B7A4C6845
:1011D00043EAC4034C7A234302F5C07404EB0014C1
:1011E0002468234302F5C07404EB001423608B7A57
:1011F00003F00F038B7202F5C07303EB00135B68FF
:1012000023F00F0402F5C07303EB00135C6002F5DA
:10121000C07303EB00135B688C7A234302F5C07440
:1012200004EB001463608B7B1C064B7B44EA034495
:101230000B7B44EA0323CC7A234302F5C07404EB0E
:101240000014A3608B7C1C064B7C44EA03440B7C9B
:1012500044EA0323CC7B234302F5C07404EB00145F
:10126000E36002F5C07303EB00131B6843F0010455
:1012700002F5C07303EB00131C6010BD10B50246ED
:10128000002321B1012907D002290FD109E090687C
:101290001D4C00EA04030BE090681C4C00EA0403B8
:1012A00006E090681A4C00EA040301E0002300BF46
:1012B00000BF184C181BA34216D007DC83B16FF097
:1012C0008060184470B1022818D111E0B0F5007F99
:1012D00010D0114C204448B1B0F5003F0ED10BE0C6
:1012E00002230DE000230BE0002309E0002307E0C8
:1012F000012305E0012303E0012301E0002300BFF7
:1013000000BFD8B210BD00000300000400030008B5
:1013100000000310000100080001FFF710B500F005
:101320001FF800F019F810BD10B5002400BF00BF71
:10133000FEF7BEFF044600BF00BF1021054802F0C3
:1013400071F800BF00BF2046FEF7B6FF00BF00BF28
:1013500010BD0000BABD002010B5FFF7E5FF10BDBD
:1013600010B500200249086000F00AF810BD000026
:101370005C02002001490860704700005C02002008
:1013800010B5FFF73DFB04460848006840F0807048
:10139000064908600020064948600846006840F099
:1013A000010008602046FFF7E5FF10BDFCED00E0FE
:1013B000001000E00149486870470000001000E09C
:1013C00030B502460B464FF6FF70002112E0555C27
:1013D000684000240AE000F0010525B140104AF2FF
:1013E0000105684000E04010651CACB2082CF2DB3F
:1013F0004D1CA9B29942EADB30BD704710B50446D6
:10140000012C0DD1002049490870012048700020AE
:1014100088700120C87004214448FFF7FDFB84E078
:10142000022C0DD101204149087000204870012094
:1014300088700020C87004213C48FFF7EDFB74E081
:10144000032C0BD1002039490870487001208870A6
:10145000C87004213548FFF7DFFB66E0042C0BD190
:10146000012032490870487000208870C87004213B
:101470002E48FFF7D1FB58E0052C0DD100202B4959
:10148000087001204870002088700120C870042175
:101490002648FFF7C1FB48E0062C0DD10120234967
:1014A000087000204870012088700020C870042156
:1014B0001E48FFF7B1FB38E0072C0DD100201B4977
:1014C000087001204870002088700120C870042135
:1014D0001648FFF7A1FB28E0082C0DD10120134985
:1014E000087000204870012088700020C870042116
:1014F0000E48FFF791FB18E0092C0AD101200B4997
:10150000087048708870C87004210848FFF784FB91
:101510000BE00A2C09D1002004490870487088703B
:10152000C87004210148FFF777FB10BDD2010020ED
:1015300000200749488388820120A1F89600A1F87D
:10154000980000204885488008814881888170473C
:10155000F89D002001200449A1F872000020A1F8A4
:101560007400A1F876007047F89D002010B504467D
:10157000022C05D1064801780648FEF758FF05E021
:10158000062C03D1FA210448FEF751FF10BD0000DC
:101590001D0000200C780020007A00200EB50024E9
:1015A000EEE2601CC4B2642C06D1FD480068C04362
:1015B000FC49C1F880020024FB4890F85E00FB491A
:1015C0000870FB48007800282FD1FA4800780028DE
:1015D0002BD0F94800780128F6D1F8480078002887
:1015E00051D1F148B0F84E00097888420DDDEE483F
:1015F000B0F85000ED490978884206DDEA48B0F8B5
:101600009E00EA490978884210DCED48007868B904
:101610000220E549A1F88C000120E9490870052065
:1016200001F046FFE7A00CF09FFDA3E2DE48B0F812
:101630004E00DE4909788842F7DDDB48B0F85000FB
:10164000DA4909788842F0DDD748B0F89E00D749DA
:1016500009788842E9DDDA4800780128E5D102A856
:1016600000210B460122CDE90010084603F0ACFA38
:101670000520CD49A1F88C000020D1490870012037
:10168000D349087076E2CD480078012852D1C64887
:10169000B0F85200C549097888420DDDC248B0F85B
:1016A0005400C2490978884206DDBF48B0F8A0005E
:1016B000BE490978884210DCC148007868B9022028
:1016C000B949A1F88C000120BD490870052001F03E
:1016D000EFFEBCA00CF048FD4CE2B348B0F852005D
:1016E000B24909788842A0DDAF48B0F85400AF494C
:1016F0000978884299DDAC48B0F8A000AB49097878
:10170000884292DDAE48007801288ED102A80021DF
:101710000B460122CDE90010084603F055FA0520DA
:10172000A149A1F88C000020A54908700120A84912
:1017300008701FE2A1480078022860D19A48B0F8EA
:1017400056009A490978884214DD9748B0F8580045
:101750009649097888420DDD9348B0F8A200934974
:101760000978884206DD9048B0F8A4008F490978CE
:10177000884210DC9248007868B902208A49A1F8B2
:101780008C0001208E490870052001F091FE8DA08B
:101790000CF0EAFCEEE18448B0F856008349097881
:1017A000884299DD8048B0F858008049097888421D
:1017B00092DD7D48B0F8A2007C49097888428BDD33
:1017C0007948B0F8A40079490978884284DD7C48DA
:1017D00000780128ADD102A800210B460122CDE9F5
:1017E0000010084603F0F0F905206F49A1F88C00BD
:1017F000002073490870012075490870BAE16F48EC
:101800000078032860D16848B0F85A006749097821
:10181000884214DD6448B0F85C0064490978884265
:101820000DDD6148B0F8A60060490978884206DD00
:101830005D48B0F8A8005D490978884210DC60482E
:10184000007868B902205849A1F88C0001205C4951
:101850000870052001F02CFE5AA00CF085FC89E1EF
:101860005148B0F85A0051490978884292DD4E48F3
:10187000B0F85C004D49097888428BDD4A48B0F8E1
:10188000A6004A490978884284DD4748B0F8A80094
:10189000464909788842B1DD494800780128ADD130
:1018A00002A800210B460122CDE90010084603F0F2
:1018B0008BF905203C49A1F88C00002040490870B4
:1018C00001204349087055E13C480078042866D15E
:1018D0003548B0F85A0035490978884230DD324839
:1018E000B0F85C0031490978884229DD2E48B0F80B
:1018F00056002E490978884222DD2B48B0F858005E
:101900002A49097888421BDD2748B0F8A2002749F8
:101910000978884214DD2448B0F8A40023490978E6
:1019200088420DDD2048B0F8A60020490978884299
:1019300006DD1D48B0F8A8001C490978884210DC73
:101940001F48007868B902201749A1F88C000120CF
:101950001B490870052001F0ABFD1AA00CF004FC37
:1019600008E11148B0F85A00104909788842AADD08
:101970000D48B0F85C000D4909788842A3DD0A489B
:10198000B0F856000949097888429CDD0648B0F84D
:10199000580006490978884295DD03481AE04CE072
:1019A0008002424200004242F89D002002020020D4
:1019B000E201002005020020CF010020C901002023
:1019C00003020020C7B0B7BDD3D0D5CFB0AD000063
:1019D000CB010020B0F8A2006A4909788842BFDD37
:1019E0006948B0F8A40067490978884224DD664850
:1019F000B0F8A6006349097888421DDD6248B0F856
:101A0000A80060490978884216DD604800780128FE
:101A100012D102A800210B460122CDE90010084690
:101A200003F0D2F805205849A1F88C00002057494E
:101A300008700120564908709CE056480078052837
:101A400048D15148B0F85A004E490978884230DDF3
:101A50004D48B0F85C004B490978884229DD4A4876
:101A6000B0F8560047490978884222DD4648B0F868
:101A700058004449097888421BDD4348B0F8A20069
:101A800040490978884214DD3F48B0F8A4003D4938
:101A9000097888420DDD3C48B0F8A600394909783C
:101AA000884206DD3848B0F8A800364909788842EF
:101AB00011DC3648007870B902203349A1F88C0057
:101AC000012032490870052001F0F2FCAFF20C1041
:101AD0000CF04AFB4EE02C48B0F85A00294909782E
:101AE000884247DD2848B0F85C00264909788842DA
:101AF00040DD2548B0F8560022490978884239DD92
:101B00002148B0F858001F490978884232DD1E4844
:101B1000B0F8A2001B49097888422BDD1A48B0F8BA
:101B2000A40018490978884224DD1748B0F8A600B7
:101B30001449097888421DDD1348B0F8A8001149FE
:101B40000978884216DD11480078012812D102A8D0
:101B500000210B460122CDE90010084603F034F8BD
:101B600005200949A1F88C000020084908700120CF
:101B7000074908700A230022114610460BF0A6FF01
:101B80000FE5000002020020F89D00200302002063
:101B9000CB010020C901002028E015480078F8B1E9
:101BA00014480078E0B914480078C8B91348B0F870
:101BB000840048B915201149C88311A00CF0D4FA4B
:101BC00000200B4908700BE00CF0F2FA05200B49DD
:101BD000A1F88C0001201049087500200449087004
:101BE00005230022114610460BF070FFD5E70000D8
:101BF000CB010020DC010020D0010020F89D002056
:101C0000C7EBD1A1D4F1D0E8D2AAD6B4D0D0B5C414
:101C1000C8CECEF1A3A10000789D00201DE00F48A2
:101C20000078012805D10BF053FA01210C4800F08F
:101C3000D9F80C48007850B10CF09EFC03200A49FA
:101C4000A1F88C0000200949087506490870052391
:101C50000022114610460BF039FFE0E72D0200206C
:101C600028640240CC010020F89D0020789D0020CF
:101C7000002409E0601C84B2142C02D1002400F07E
:101C8000BDFF0A200CF05CFAF4E7000010B507492C
:101C9000074800F063F938B10449054800F088F8B6
:101CA0000021034800F09EF810BD000000800018DD
:101CB0005860024010B50A490A4800F04FF968B16F
:101CC000012240F22661084809F090FF04490548C6
:101CD00000F06EF80021034800F084F810BD000009
:101CE0002080002070600240004C004010B5074981
:101CF000074800F033F938B10449054800F058F8B6
:101D00000021034800F06EF810BD00000080202084
:101D1000A06002402DE9F04100261549154800F069
:101D20001DF910B300241AE0002509E005EB450079
:101D3000114901EB400030F814000644681CC5B29C
:101D40001E2DF3DB1E2096FBF0F738460CF094FEB8
:101D50000A4A02EBC40203C20026601CC4B2032C70
:101D6000E2DB0349034800F023F8BDE8F0810000FE
:101D7000208000101064024048750020007600208A
:101D800010B50849084800F0E9F850B1054906487F
:101D900000F00EF80021044800F024F80120034967
:101DA000087010BD00800028B86402402C0200209A
:101DB0000246094B9A4201D2084801E00648103811
:101DC00001F000531BB1064B0B40C36002E0044B13
:101DD0000B408360704700001064024000600240C6
:101DE0007D0F7D0F21B1026842F00102026003E025
:101DF000026822F00102026070470000016821F0D1
:101E0000010101600021016041608160C1600161E8
:101E1000212141614A49884204D13D21484A103A72
:101E200091608CE046491831884205D14FF47461C5
:101E3000434A103A916082E041493031884205D1ED
:101E40004FF474113E4A103A916078E03C494831B1
:101E5000884205D14FF07461394A103A91606EE0C2
:101E600037496031884204D13649354A103AD16049
:101E700065E033497831884204D13349304A103A19
:101E8000D1605CE02E499031884204D12F492C4A20
:101E9000103AD16053E02A49A831884205D14FF069
:101EA0003D51274A103AD16049E02949884204D17E
:101EB0003D21274A083A116041E0254918318842FE
:101EC00005D14FF47461224A083A116037E0204985
:101ED0003031884205D14FF474111D4A083A11601F
:101EE0002DE01B494831884205D14FF07461184AF2
:101EF000083A116023E016496031884204D1114943
:101F0000134A121F11601AE011497831884204D136
:101F10000D490F4A121F116011E00D49903188429E
:101F200004D10A490A4A121F116008E00849A83181
:101F3000884204D14FF03D51054A121F116070478D
:101F4000106002403D000020400F002000003D20B6
:101F5000106402400146486880B2704770B502467E
:101F6000002000240025124EB24201D2114B01E0A4
:101F70000F4B103B104E0E4036B11E2606EAD12400
:101F8000166806EA040502E0566906F0800501F0CD
:101F900000560EB15C6800E01C68084E344004EA4C
:101FA000010616B10DB1012000E0002070BD000057
:101FB00010640240006002403C0F3C0F7D0F7D0F1B
:101FC00010B501F080034BB122B1436943F08003A7
:101FD000436103E0436923F08003436180290BD010
:101FE0002AB1036801F01E042343036004E0036880
:101FF00001F01E04A343036010BD000010B50022D1
:102000000268134B1A40CC680B6823434C69234386
:102010008C692343CC6923430C6A23434C6A2343D2
:102020008C6A23434C6B23438C6B23431A4302601B
:10203000426922F00702D1E90B3423431A4342617B
:102040000B6943604B6883608B68C36010BD000000
:102050003F801CF04160704700B591B001214805F8
:1020600006F006F800213A48FFF7BCFE3848FFF7B3
:10207000C5FE4FF00060019036480290364803904C
:1020800040200490FA200590002006904FF48060D4
:1020900007900020089009904FF480700A9000206B
:1020A0000C9003200D9000040B9000200E900F90D8
:1020B00001A92748FFF7A2FF00212548FFF792FE5C
:1020C000012210212248FFF77BFF00212048183809
:1020D000FFF788FE1E481838FFF790FE4FF00060AB
:1020E00001901C4802901D48039000200490FA20A3
:1020F0000590002006904FF4806007900020089023
:1021000009904FF480700A9000200C9003200D90ED
:1021100000040B9000200E900F9001A90C48183875
:10212000FFF76CFF01210A481838FFF75BFE11200A
:102130008DF8400002208DF8410005208DF8420006
:1021400001208DF8430010A801F0A6FA11B000BDDF
:10215000A060024004440040067900200C78002072
:1021600000B591B00121480505F082FF00213A48F1
:10217000FFF738FE3848FFF741FE4FF0006001904E
:102180003648029036480390402004908220059003
:10219000002006904FF4806007900020089009907E
:1021A0004FF480700A9000200C9003200D900004E2
:1021B0000B9000200E900F9001A92748FFF71EFFFB
:1021C00000212548FFF70EFE012210212248FFF7CB
:1021D000F7FE002120483038FFF704FE1E48303853
:1021E000FFF70CFE4FF0006001901C4802901D4864
:1021F00003900020049082200590002006904FF468
:10220000806007900020089009904FF480700A9039
:1022100000200C9003200D9000040B9000200E90E5
:102220000F9001A90C483038FFF7E8FE01210A4859
:102230003038FFF7D7FD0E208DF8400002208DF8D2
:10224000410005208DF8420001208DF8430010A8C0
:1022500001F022FA11B000BD58600240044800406D
:10226000767C0020F47B002000B591B00121480568
:1022700005F0FEFE00213A48FFF7B4FD3848FFF7AD
:10228000BDFD4FF000600190364802903648039043
:1022900040200490FA200590002006904FF48060C2
:1022A00007900020089009904FF480700A90002059
:1022B0000C9003200D9000040B9000200E900F90C6
:1022C00001A92748FFF79AFE00212548FFF78AFD5C
:1022D000012210212248FFF773FE002120483038E8
:1022E000FFF780FD1E483038FFF788FD4FF0006093
:1022F00001901C4802901D48039000200490FA2091
:102300000590002006904FF4806007900020089010
:1023100009904FF480700A9000200C9003200D90DB
:1023200000040B9000200E900F9001A90C4830384B
:10233000FFF764FE01210A483038FFF753FD0F20F4
:102340008DF8400002208DF8410004208DF84200F5
:1023500001208DF8430010A801F09EF911B000BDD6
:1023600070600240044C0040187600201277002074
:1023700000B591B00121880505F07AFE00213A48A8
:10238000FFF730FD3848FFF739FD4FF0206001902E
:10239000364802903648039040200490FA20059079
:1023A000002006904FF4806007900020089009906C
:1023B0004FF480700A9000200C9003200D900004D0
:1023C0000B9000200E900F9001A92748FFF716FEF2
:1023D00000212548FFF706FD012210212248FFF7C2
:1023E000EFFD002120489038FFF7FCFC1E48903894
:1023F000FFF704FD4FF0206001901C4802901D483B
:10240000039000200490FA200590002006904FF4DD
:10241000806007900020089009904FF480700A9027
:1024200000200C9003200D9000040B9000200E90D3
:102430000F9001A90C489038FFF7E0FD01210A48F0
:102440009038FFF7CFFC46208DF8400002208DF831
:10245000410004208DF8420001208DF8430010A8AF
:1024600001F01AF911B000BDB86402400414014033
:10247000FA7A0020007A002000B591B00121880589
:1024800005F0F6FD00212048FFF7ACFC1E48FFF7E1
:10249000B5FC002001901D4802901D4803900020CB
:1024A00004905A200590002006904FF48060079019
:1024B000400008900990C0100A9000200C90032062
:1024C0000D9000040B9000200E900F9001A90E4873
:1024D000FFF794FD012210210B48FFF771FD012148
:1024E0000948FFF77FFC38208DF8400002208DF866
:1024F000410003208DF8420001208DF8430010A810
:1025000001F0CAF811B000BD106402404C20014037
:10251000487500207047000070B54548B0F86E005F
:1025200000287CDD4248B0F86E00002827DD4048D6
:10253000B0F86E003E49B1F8701088421FD03C4898
:10254000B0F8704016E0002510E004EB4400394973
:1025500001EB400030F81510601E00EB4000354ADA
:1025600002EB400020F81510681C85B2032DECDB4F
:10257000601C84B22E48B0F86E00A042E3DC2C4808
:10258000B0F86E00401E2A49A1F86E000846B0F867
:102590006E0018B90020A1F870000FE02448B0F8D0
:1025A0006E00401C2249B1F87010884206D12048C4
:1025B000B0F87000401E1E49A1F87000002415E01C
:1025C0001B4AB2F86C20521E1B4B4FF4967606FB4A
:1025D0000232032303FB042104EB4402154B03EBFB
:1025E0004200032209F062FF601C84B21048B0F878
:1025F0006E00A042E4DC0E48B0F86E10B0F86C003B
:10260000401E0E4A22F81010094AB2F86C200C4BFA
:10261000D118074AB2F86C20521E084B00E006E0C1
:1026200003EB4200012209F041FF09F0A3FB70BD5A
:10263000F89D00207AB700208E460F0092B300204C
:1026400099440F002DE9FF4F87B0884691469A467E
:102650000024D3466FEA0800C5B20026002700BF59
:1026600000208DF800008DF811008DF81200059003
:102670008DF8180000240CE045FA04F000F0010089
:1026800028B19DF81200401CC0B28DF81200601CE9
:10269000C4B2082CF0DB00240AE045FA04F000F094
:1026A000010010B9701CC6B200E00824601CC4B25E
:1026B000082CF2DB00240AE005FA04F000F08000A8
:1026C00010B9781CC7B200E00824601CC4B2082C02
:1026D000F2DB344611E045FA04F000F0010050B995
:1026E0009DF800100DF1010044549DF80000401CBD
:1026F000C0B28DF80000601CC4B2C7F10800A0424F
:10270000E9DC9DF8000000281FDD01208DF8110094
:102710009DF80000012818DD002411E00DF10100F2
:10272000611C415C005D081A012800D106E09DF89B
:102730001100401CC0B28DF8110000BF601CC4B273
:102740009DF80000401EA042E8DC9DF8120018B978
:1027500001208DF818003DE09DF8000000282FDDD5
:102760009DF81100012835D1BBF1020F10D134467C
:102770000BE045FA04F000F0010018B10120A04080
:10278000854300E00824601CC4B2082CF1DB67E735
:10279000BBF1010F10D13C460BE005FA04F000F04C
:1027A000800018B180202041854300E00824601C8F
:1027B000C4B2082CF1DB53E701208DF8180009E0C2
:1027C0009DF81200484502DCB81B059002E001208C
:1027D0008DF818001C2269460548FDF7F6FD1C22FD
:1027E00069460798FDF7F1FD0BB0BDE8F08F0000DA
:1027F0001C9D0020F0B50A4600210023002400BFE4
:102800003DE0012505FA01F3156805EA03049C4241
:1028100034D105684F000326BE40B54305601579E5
:102820004E00B5400668354305601579012D02D08C
:102830001579022D16D185684F000326BE40B54399
:10284000856055794E00B54086683543856045689A
:1028500001268E40B5434560456896798E40B6B2F4
:1028600035434560C5684F000326BE40B543C5608B
:10287000D5794E00B540C6683543C560491C10295E
:10288000BFD3F0BDF0B5002300244D07ED0E02FAD2
:1028900005F3CE1000F1200555F826504E07F70E2F
:1028A0000F26BE40B543CF1000F1200646F8275052
:1028B000CE1000F1200555F8265045EA0304CE104D
:1028C00000F1200545F82640F0BD418370470183A3
:1028D0007047000010B565220021024809F05CFD38
:1028E00010BD0000189F002070B50024344AB2F8D3
:1028F0006C20344BD118324AB2F86C20521E324B45
:1029000003EB4200012209F047FD2D48B0F86C00AE
:10291000401E2D4931F810002949A1F86E00012010
:10292000A1F870000846B0F86E00642804DD0020AD
:10293000A1F86E00A1F87000002415E0204AB2F85A
:102940006C20521E214B4FF4967505FB0232032377
:1029500003FB042104EB44021D4B03EB4200032262
:1029600009F01AFD601C84B21548B0F86E00A04250
:10297000E4DC1348B0F87000401E00EB400014493E
:1029800031F810000E49A1F872000846B0F8700046
:10299000401E00EB40000E4901EB40004088084912
:1029A000A1F874000846B0F87000401E00EB40002B
:1029B000074901EB400080880149A1F8760070BD0D
:1029C000F89D002099440F0092B300208E460F001E
:1029D0007AB7002070B5044600252F4AA118621E60
:1029E0002E4B03EB4200012209F0D6FC601E2B495E
:1029F00031F810002A49A1F86E000120A1F87000FA
:102A00000846B0F86E00642804DD0020A1F86E00CE
:102A1000A1F87000002512E0621E224B4FF496765A
:102A200006FB0232032303FB052105EB45021E4B87
:102A300003EB4200032209F0AFFC681C85B2184882
:102A4000B0F86E00A842E7DC1548B0F87000401EF0
:102A500000EB4000144931F810001149A1F8720050
:102A60000846B0F87000401E00EB40000E4901EB34
:102A7000400040880A49A1F874000846B0F8700088
:102A8000401E00EB4000084901EB400080880449EB
:102A9000A1F8760070BD000099440F0092B30020A9
:102AA000F89D00208E460F007AB7002010B504462E
:102AB000064AA118621E064B03EB4200012209F0F0
:102AC0006BFC601E024931F8100010BD99440F00E4
:102AD00092B3002070B50546284600F025F80F494E
:102AE000C884002412E06A1E4FF4FA635A4302F2CB
:102AF0005922142303FB042104EB8402084B03EB4B
:102B0000C200142209F048FC601C84B2681E05490A
:102B100031F81000A042E6DC70BD0000F89D0020F6
:102B2000CAA30020E29F002010B5044604F164010E
:102B3000621E0B4B03EB4200012209F02DFC601ECC
:102B4000074931F81000642804DD0021601E044AA2
:102B500022F81010601E024931F8100010BD00006C
:102B6000E29F002010B50220FEF748FC10BD00BF18
:102B7000FEE7302805DB392803DCA0F13001C8B2BC
:102B800010E0412805DB462803DCA0F13701C8B27C
:102B900008E0612805DB662803DCA0F15701C8B214
:102BA00000E0FF207047000010B50D48B0F8840029
:102BB000022805D1FFF798FE0A4800880849C88610
:102BC0000749C88EFFF7B0FF0549C8840020488038
:102BD000C88EFFF77FFF044840890149888710BDF0
:102BE000F89D00207AB70020CAA300204CF6CC4004
:102BF00001490860704700000030004010B500F047
:102C000013F810BD70B505460C4645F2555000F05E
:102C10001FF8284600F010F8204600F013F800F0E6
:102C200003F8FFF7E3FF70BD4AF6AA2001490860E8
:102C300070470000003000400149486070470000C4
:102C400000300040014988607047000000300040BB
:102C500001490860704700000030004070B53C48F2
:102C6000B0F86E10B0F86C00401E3A4A22F810100E
:102C7000374AB2F86C20384BD118354AB2F86C207C
:102C8000521E344B03EB4200012209F00FFC304886
:102C9000B0F86E4017E0002511E0A01E00EB4000E8
:102CA0002E4901EB400030F81510601E00EB40008B
:102CB0002A4A02EB400020F81510681C85B2032D4B
:102CC000EBDB601E84B22248B0F87000A042E2DD67
:102CD0001F48B0F87210B0F87000401E00EB4000C2
:102CE0001E4A22F810101A48B0F87410B0F870009C
:102CF000401E00EB400002EB400041801448B0F859
:102D00007610B0F87000401E00EB400002EB40006F
:102D10008180002415E00E4AB2F86C20521E104B40
:102D20004FF4967606FB0232032303FB042104EBE7
:102D300044020A4B03EB4200032209F0B7FB601C7C
:102D400084B20348B0F86E00A042E4DC70BD00001D
:102D5000F89D002092B3002099440F007AB700201C
:102D60008E460F001CB50121202005F081F90121BC
:102D7000022005F07DF90121402005F079F90121BB
:102D8000084605F075F90121042005F071F90121CB
:102D9000082005F06DF90121102005F069F92020C7
:102DA000009000208DF8040003208DF8050001201C
:102DB0008DF8070069467D48FFF71CFD48F210407A
:102DC000009000208DF8040003208DF805000120FC
:102DD0008DF8070069467648FFF70CFD44F2F07065
:102DE000009000208DF8040003208DF805000120DC
:102DF0008DF8070069466F48FFF7FCFC48F20810A1
:102E0000009001208DF8040000208DF806000320BA
:102E10008DF8050001208DF8070069466348FFF72B
:102E2000E9FC00206449086001206449C1F8A0025F
:102E300061493031086040F2F970009001208DF84E
:102E4000040000208DF8060003208DF80500012005
:102E50008DF8070069465A48FFF7CCFC0120594914
:102E6000086058490C310860091D0860091D086098
:102E7000091D0860091D0860091D0860091D08601A
:102E80005149C1F8A8023020009001208DF80400BB
:102E900000208DF8060003208DF8050001208DF834
:102EA000070069464948FFF7A5FC0120484908602A
:102EB0004849C1F894024FF21B00009001208DF8A0
:102EC000040000208DF8060003208DF80500012085
:102ED0008DF8070069464048FFF78CFC01203F4908
:102EE0000860091D08603D490C310860091D086033
:102EF0003A4930310860091D0860091D08603849E9
:102F0000C1F8BC020320009001208DF804000020CD
:102F10008DF8060003208DF8050001208DF80700CC
:102F200069462348FFF766FC01202E4908602E49B8
:102F3000C1F884020F20009001208DF804000020C9
:102F40008DF8060003208DF8050001208DF807009C
:102F500069461848FFF74EFC012024490860091D06
:102F60000860091D08602249C1F88C024FF46C40CA
:102F7000009001208DF8040000208DF80600032049
:102F80008DF8050001208DF8070069461948FFF704
:102F900031FC012018490860174914390860091DDF
:102FA00008601649C1F8B4021CBD000000000240D0
:102FB00000100240001402408C02404200004042D7
:102FC00000040240808240420080404200080240EB
:102FD0009002414200004142000C02408082414286
:102FE00000804142800242420000424280824242CE
:102FF0000080424200180240BC02434200004342AB
:1030000010B57E2014490870322048703520887031
:103010003020C870087134204871362088713420FF
:10302000C871322008724520487230208872C872F8
:103030003220087330204873312088734620C873CB
:103040004420087433204874312088740D20C874DB
:10305000142008F05FFE10BD767C002000251E24A1
:1030600000BFD3E1EA480068012803D1052000F041
:103070001FFAC5E1E748007818B1E7480078022850
:1030800022D10120FEF7BAF9E248007810B9E348EE
:10309000B0F86450E0480078022804D1DE48407857
:1030A000204400EB40052946012000F0B9FA2946EA
:1030B000022000F0B5FA2946032000F0B1FA2946B3
:1030C000042000F0ADFA70E1D248407818B1D2483F
:1030D0000078012822D10220FEF790F9CD484078EF
:1030E00010B9CE48B0F86450CB480078012804D11C
:1030F000C9484078204400EB40052946012000F0F3
:103100002BFA2946022000F027FA2946032000F076
:1031100023FA2946042000F01FFA46E1BD488078D2
:1031200018B1BD480078032822D10320FEF766F9C4
:10313000B848807810B9B948B0F86450B6480078FB
:10314000032804D1B4484078204400EB40052946C8
:10315000012000F001FA2946022000F061FA294618
:10316000032000F05DFA2946042000F0F5F91CE187
:10317000A848C07818B1A8480078042822D10420B3
:10318000FEF73CF9A348C07810B9A448B0F86450E1
:10319000A1480078042804D19F484078204400EBDF
:1031A00040052946012000F03BFA2946022000F0A4
:1031B000D3F92946032000F0CFF92946042000F076
:1031C0002FFAF2E09348007918B193480078072865
:1031D00020D10520FEF712F98E48007910B98F48EA
:1031E000B0F864508C480078072804D18A484078A9
:1031F000204400EB40052946012000F011FA02208E
:1032000000F056F9032000F053F92946042000F09D
:1032100007FACAE07F48407918B17F48007805284E
:1032200020D10620FEF7EAF87A48407910B97B48A9
:10323000B0F8645078480078052804D17648407882
:10324000204400EB40052946012000F085F90220CA
:1032500000F02EF9032000F02BF92946042000F09D
:103260007BF9A2E06B48807918B16B480078082898
:1032700020D10720FEF7C2F86648807910B9674868
:10328000B0F8645064480078082804D16248407857
:10329000204400EB4005012000F00AF929460220F5
:1032A00000F0BEF92946032000F0BAF9042000F02E
:1032B000FFF87AE05748C07918B1574800780628D7
:1032C00020D10820FEF79AF85248C07910B9534827
:1032D000B0F8645050480078062804D14E48407831
:1032E000204400EB4005012000F0E2F829460220CE
:1032F00000F032F92946032000F02EF9042000F0F6
:10330000D7F852E04348007A18B1434800780928BA
:1033100022D10920FEF772F83E48007A10B93F48E2
:10332000B0F864503C480078092804D13A48407805
:10333000204400EB40052946012000F00DF9294604
:10334000022000F06DF92946032000F005F9294616
:10335000042000F065F928E02E48407A18B12E4884
:1033600000780A2821D10A20FEF748F82948407A37
:1033700010B92A48B0F86450274800780A2804D1C8
:1033800025484078204400EB40052946012000F004
:1033900047F92946022000F0DFF82946032000F013
:1033A0003FF92946042000F0D7F81A480078012890
:1033B00026D118484078012822D116488078012863
:1033C0001ED11448C07801281AD11248007901286A
:1033D00016D110484079012812D10E488079012871
:1033E0000ED10C48C07901280AD10A48007A012878
:1033F00006D10848407A012802D1052000F058F88B
:103400000A230022114610460AF060FB2AE600005B
:103410001882424244000020F47B0020F89D0020E6
:1034200000BFFEE730B505460C462246002128467F
:1034300000F001F830BD2DE9F04105460B469446F9
:103440000027002402E03F021F43641C042CFAD32F
:10345000604605F00306294646B1344603E001F80C
:10346000013B401E641C08B1042CF8D30A4601E05D
:1034700080C2001F0428FBD2114602E001F8013B84
:10348000401E0028FAD1BDE8F08100000120064965
:1034900008600649C1F88C0203490C3908600349E9
:1034A000C1F8800270470000908241420080414292
:1034B00010B50446012C07D10020234908600021E3
:1034C000224807F0A2FC3EE0022C08D100201E4951
:1034D000091F086000211D4807F099FC33E0032C08
:1034E00008D1002018490C3908600021174807F05E
:1034F00090FC28E0042C08D1002013491039086002
:103500000021124807F087FC1DE0002010490870D8
:103510000D4908600F49C1F88C020B490C3908604D
:103520000C49C1F880020021084807F06EFC002118
:10353000064807F06CFC0021044807F06AFC0021F3
:10354000024807F068FC10BD90824142000800402C
:10355000D10100200080414270B505460C46012D86
:1035600006D0022D0DD0032D15D0042D27D11CE03F
:10357000012014490860C4F57A71134807F045FC2E
:103580001EE001200F49091F0860C4F57A710E483A
:1035900007F03DFC14E001200A490C390860C4F52D
:1035A0007A71094807F035FC0AE001200549103915
:1035B0000860C4F57A71044807F02DFC00E000BFF4
:1035C00000BF70BD908241420008004070B50546C2
:1035D0000C46012D06D0022D0AD0032D0ED0042D4D
:1035E00018D111E0C4F57A710C4807F00EFC12E016
:1035F000C4F57A71094807F00AFC0CE0C4F57A7149
:10360000064807F006FC06E0C4F57A71034807F0A7
:1036100002FC00E000BF00BF70BD000000080040D9
:1036200070B505460C46012D06D0022D0DD0032D98
:1036300015D0042D27D11CE0012014490860C4F5E1
:103640007A71134807F0E1FB1EE001200F49091FC2
:103650000860C4F57A710E4807F0D9FB14E0012028
:103660000A490C390860C4F57A71094807F0D1FBA2
:103670000AE00120054910390860C4F57A71044850
:1036800007F0C9FB00E000BF00BF70BD908241425F
:10369000000800407047000070B5002100230F2291
:1036A000C4781CB3174C246804F4E064C4F5E064E7
:1036B000C4F30721C1F10404E3B20A4144789C40F9
:1036C000E1B28478144021430C07210E0E4C05789A
:1036D0006155047804F01F050124AC4005786D1194
:1036E000AD0005F1E025C5F8004109E0047804F0DB
:1036F0001F050124AC40054D0678761145F826409B
:1037000070BD00000CED00E000E400E080E100E0AE
:1037100002490143024A1160704700000000FA05A7
:103720000CED00E015481648164817481748184889
:103730001848194819481A481A481B481B481C4879
:103740001C481D481D481E481E481F481F48204849
:103750002048214821482248224823482348244819
:1037600024482548254826482648274827482848E9
:1037700028482948294800BF7047000028EC000865
:1037800088EB00088CEB000890EB000894EB000835
:1037900098EB00089CEB0008A0EB0008A4EB0008E5
:1037A000A8EB0008ACEB0008B0EB0008B4EB000895
:1037B000B8EB0008BCEB0008C0EB0008C4EB000845
:1037C000C8EB0008CCEB0008D0EB0008D4EB0008F5
:1037D000D8EB0008DCEB0008E0EB0008E4EB0008A5
:1037E000E8EB0008ECEB0008F0EB0008F4EB000855
:1037F000F8EB0008FCEB000800EC000804EC000803
:1038000008EC00080CEC000810EC000814EC0008B0
:1038100018EC00081CEC000820EC000824EC000860
:1038200010B50348006810B101480068804710BD1A
:103830007402002070B5044600F0C2F80020484928
:103840000870484908704849087048490860484964
:103850000860484908704849087048490870484954
:103860000860484908604849086048490870484865
:1038700000680A21B0FBF1F046490860464800683C
:1038800058B14648056845B14348066803E0761ECE
:10389000002028602D1D002EF9D10020404908602D
:1038A0004049086040490860404908604049086054
:1038B00040490860404908604049087002F0ECF94E
:1038C00002F0CCFA204601F07BFB208800B170BDED
:1038D000204601F05DFF208800B1F8E7204601F0A6
:1038E0007FFF208800B1F2E7204602F04BF82088E5
:1038F00000B1ECE7204602F0FFF9208800B1E6E7CE
:10390000204602F01FFC208800B1E0E7204602F0CC
:1039100041FF208800B1DAE7204601F0A5FE2088AB
:1039200000B1D4E7204601F0BDFC208800B1CEE70D
:10393000204603F09FFE208800B1C8E7204602F031
:103940006DFE208800B1C2E7204603F0EFFE20881C
:1039500000B1BCE701F05CFAFFF7E4FE00BFB6E798
:103960008802002089020020D002002028030020C5
:103970002C030020B6020020B7020020B80200206D
:10398000C4020020C8020020CC020020D80200207F
:10399000E8EB0008D4020020B8EB0008B4EB000804
:1039A000680200206C0200207002002074020020D7
:1039B000780200207C020020800200200603002004
:1039C000064800680649096800EB8100054908605F
:1039D0000846006820F0070008607047B4EB000854
:1039E000B8EB00083003002008480078012800D018
:1039F000704707480078FA2800DBF9E704480078A8
:103A0000401C0349087000BFF2E700008902002053
:103A10008802002010B500242D480078012800D02D
:103A200010BD00BFFCF744FC044600BF29480078E5
:103A300028B900BF2046FCF73FFC00BFF0E725484F
:103A40000078401E2349087008460078002805DDEC
:103A500000BF2046FCF730FC00BFE1E71E480078BD
:103A6000002805DD00BF2046FCF726FC00BFD7E795
:103A700002F0FEF8194908700846007800EB400093
:103A8000174951F820001749086008460068164990
:103A90000968884205D100BF2046FCF70DFC00BF35
:103AA000BEE710480068D0F89000401C0D49096836
:103AB000C1F890000D480068401C0C490860FCF7F4
:103AC00049FD00BF2046FCF7F7FB00BF00BFA7E79A
:103AD0008902002088020020D0020020B7020020C6
:103AE000F0D300202C03002028030020FC0200203B
:103AF00010B500241F480078002800DD10BD1E48C6
:103B00000078002800DDF9E700BFFCF7D1FB044690
:103B100000BF02F0ADF8194908700846007800EBC4
:103B20004000174951F8200016490860084600680F
:103B300015490968884205D100BF2046FCF7BCFB47
:103B400000BFDBE70F480068D0F89000401C0D492B
:103B50000968C1F890000D480068401C0B490860D6
:103B6000FCF7F3FC00BF2046FCF7A6FB00BF00BF3C
:103B7000C4E7000088020020D0020020B702002025
:103B8000F0D300202C03002028030020FC0200209A
:103B900070B50446002518480078002803DD46F675
:103BA0006250208070BD15480078012803D045F68A
:103BB00089602080F6E712480078FA2803DB45F296
:103BC00009202080EEE700BF00BFFCF771FB05462F
:103BD00000BF00BF0A480078401C0949087002F085
:103BE0001DFA00BF00BF2846FCF766FB00BF00BF00
:103BF0000020208000BFD5E7880200208902002035
:103C0000D00200202DE9F04105460C46164600275B
:103C100000BF00BFFCF74CFB074600BF00BF012DF3
:103C200003D000200D49087002E001200B49087004
:103C300014B10B48046006E00A4800680A21B0FB92
:103C4000F1F00749086000BF00BF3846FCF734FBBD
:103C500000BF00BF00203080BDE8F081D802002006
:103C6000D4020020E8EB000870B504460025204887
:103C70000078002803DD46F66550208070BD1D48A1
:103C80000078012803D045F689602080F6E71A48BD
:103C9000007818B946F664502080EFE700BF00BFF7
:103CA000FCF706FB054600BF00BF13480078401E26
:103CB000114908700846007800280ADD00BF00BFDF
:103CC0002846FCF7F9FA00BF00BF46F66350208093
:103CD000D4E702F0B1F900BF00BF2846FCF7ECFAC8
:103CE00000BF00BFFFF704FF0020208000BFC5E732
:103CF0008802002089020020D002002010B504466E
:103D000012480078E8B901F0B3FF1149087008467D
:103D10000078104908700E48007800EB40000E490A
:103D200051F820000D490860084600680C490860F9
:103D3000012006490870FCF7F7FB43F69920208024
:103D400002E045F68A60208010BD00008902002054
:103D5000B7020020B6020020F0D300202C03002080
:103D6000280300202DE9F04107464FF0000800BF6E
:103D700000BFFCF79DFA804600BF00BF00203D4910
:103D800008603D4908803D4908803D4908603D493B
:103D900008603D4908603D4908603D49088100BF11
:103DA00000BF4046FCF788FA00BF00BF00BF00BF5D
:103DB000FCF77EFA804600BF00BF3648046800BFAB
:103DC00000BF4046FCF778FA00BF00BF21E000BF0B
:103DD00000BFFCF76DFA804600BF00BF00207834BA
:103DE000E06320602063A061A082E0826062A06244
:103DF000FDF7E0FA2062783C04F164060020B0810F
:103E0000D4F8BC4000BF00BF4046FCF755FA00BFE5
:103E100000BF002CDBD100BF00BFFCF749FA804691
:103E200000BF00BF1C48056800BF00BF4046FCF74C
:103E300043FA00BF00BF12E000BF00BFFCF738FA32
:103E4000804600BF00BF05F120060020B081AD69AB
:103E500000BF00BF4046FCF72FFA00BF00BF002D97
:103E6000EAD103F0E3FA03F05DFD00203880BDE8FD
:103E7000F08100009C02002096020020E602002053
:103E8000F80200200C03002018030020C8020020C4
:103E9000E4D3002000030020BC020020F8B5044653
:103EA00000266946324800F08FFDBDF8000018B1C9
:103EB000BDF800002080F8BD6A460021022000F015
:103EC000F7FDBDF8000018B1BDF800002080F2E752
:103ED00000BF00BFFCF7ECF9064600BF00BF0020A2
:103EE0002449086000BF00BF3046FCF7E5F900BF79
:103EF00000BF00252048006820490968884205D98C
:103F00001D4800681D490968B0FBF1F525B91A483C
:103F100000680A21B0FBF1F56A460021284600F04E
:103F2000C7FD6946124800F063FABDF8000018B1F9
:103F3000BDF800002080BEE700BF00BFFCF7B8F965
:103F4000064600BF00BF00200D4908600948006810
:103F50000C49086001200C49087000BF00BF3046C2
:103F6000FCF7AAF900BF00BF0020208000BFA2E735
:103F700078D80020E8020020E8EB0008D0EB000829
:103F8000F8020020EC020020F402002010B50348E3
:103F9000006810B101480068804710BD7802002019
:103FA0002DE9FF4F87B004469046DDE91BA5DDE90A
:103FB0001496179F0020039087480078002805DD9D
:103FC00047F24A1028800BB0BDE8F08F1CB947F2C9
:103FD000AD102880F7E7B8F1000F03D147F24F107A
:103FE0002880F0E71EB946F62F602880EBE77B4873
:103FF0000068874203D246F630602880E3E71698CF
:10400000B84203D346F631602880DCE7B9F1400FAF
:1040100003D346F273202880D5E7B9F1000F06D10B
:104020006F48844203D046F273202880CBE7B9F171
:104030003F0F06D16B48844203D046F2732028809C
:10404000C1E7204602F0B6FB002028800AF00100FC
:1040500090B10AF0020078B105960020069008E0C1
:104060000021059801600598001D05900698401CE8
:1040700006900698B842F3D3169806EB8000049099
:10408000CDE9007A32464046049B0A9900F06EFB67
:104090000590C4F828800A98E0620898206284F8A5
:1040A0003790059820600498A06019986065199869
:1040B00018B94D480068A06501E01998A0651A98E4
:1040C00060606662A763A4F83CA04FF0000B08E0B4
:1040D000002104F17C0040F82B100BF1010000F0EE
:1040E000FF0BBBF1000FF3D004F16400189901F04D
:1040F000C3FB204600F082F800BF00BF00BFFCF702
:10410000D7F8039000BF00BF38480078401C3749FB
:10411000087000BF00BF0398FCF7CEF800BF00BFD7
:1041200000BF94F8370001F0C3FD204601F0DEFE29
:10413000204602F0F5FA2E480088401C2C490880E1
:104140002C48007801282DD000BF00BF00BFFCF72D
:10415000AFF8039000BF00BF24480078401E2349F9
:10416000087008460078A0B923480088002809DDB7
:1041700000BF00BF0398FCF79FF800BF00BF01F02D
:1041800023FF0DE000BF00BF0398FCF795F800BFC8
:1041900006E000BF00BF0398FCF78EF800BF00BF29
:1041A00000BF10E700BF00BF00BFFCF781F803901D
:1041B00000BF00BF0D480078401E0C49087000BFCA
:1041C00000BF0398FCF778F800BF00BF00BFFFF7FF
:1041D0008FFC00BFF7E6000088020020E4EB000837
:1041E00020D300205CD20020D4020020D002002086
:1041F00004030020890200209402002010B5044628
:104200000348006818B1204601490968884710BD75
:104210006802002070B504460D4600266748007805
:10422000002803DD47F24E10288070BD64488442A8
:1042300003D147F24C102880F7E76248844203D14B
:1042400047F24D102880F0E77CB900BF00BFFCF7B3
:104250002FF8064600BF00BF5B48046800BF00BFE0
:104260003046FCF729F800BF00BF00BF00BF00BF09
:10427000FCF71EF8064600BF00BF54480078401CFB
:104280005249087000BF00BF3046FCF715F800BF68
:1042900000BF00BF94F8360008282DD2DFE800F0F8
:1042A00004090E10080A0F11204601F05FFE54E0C9
:1042B00053E000BF204603F09DF84EE000BF00BF72
:1042C00000BF204603F096F894F83400082810D276
:1042D000DFE800F004070508090A0B0600BF00BF6D
:1042E00008E000BF00BF00BF00BF204601F011FC86
:1042F00000E000BF00BF30E000BF00BF00BFFBF721
:10430000D7FF064600BF00BF30480078401E2F4947
:10431000087008460078A0B92D480088002809DDFB
:1043200000BF00BF3046FBF7C7FF00BF00BF01F072
:104330004BFE0DE000BF00BF3046FBF7BDFF00BFE6
:1043400006E000BF00BF3046FBF7B6FF00BF00BF6E
:1043500000BF46F62D60288067E700BF04F16400C7
:1043600001F068FA204600F037F8204602F0F0F934
:1043700018480088401E17490880204602F01AFAA3
:10438000FF2084F8360000BF00BF00BFFBF790FF9E
:10439000064600BF00BF0D480078401E0B4908705C
:1043A00000BF00BF3046FBF787FF00BF00BF00BF64
:1043B00000202880FFF79CFB00BF36E78802002022
:1043C0005CD2002020D3002028030020D00200204F
:1043D000940200200403002010B50446034800683E
:1043E00018B1204601490968884710BD6C020020B9
:1043F0007FB504460D46002600BF00BFFBF758FFFF
:10440000064600BF00BF1CB11548006884420AD1AF
:1044100000BF00BF3046FBF74FFF00BF00BF47F2B1
:10442000571028807FBD00BF00BF3046FBF744FF18
:1044300000BF00BF0B48007800280BDD0020009073
:104440000190034602462146CDE90205064800F0E8
:1044500061FFE7E72946204602F024FB00BFE1E7C1
:1044600028030020880200205452455310B504460A
:104470000348006818B1204601490968884710BD03
:10448000700200202DE9F04780460E4614461D4676
:104490004FF000097D480078002805DD46F2AE1097
:1044A00028800020BDE8F0871EB1B6F5004F02D18C
:1044B00000E000BF04E045F6256028800020F1E719
:1044C00000BF0CB10020206000BF00BFFBF7F0FE72
:1044D000814600BF00BF6E480068406CA8B36C48BE
:1044E0000068406C401E6A49096848646848006872
:1044F000476C1CB166480068006C2060FCF75AFFEE
:1045000063490968096C401A61490968C1F8A40047
:104510005F480068D0F8A8005D490968D1F8A41088
:10452000884207D25A480068D0F8A4005849096860
:10453000C1F8A80000BF00BF4846FBF7BDFE00BFA2
:1045400000BF002028803846ACE7FFE706F40040B3
:1045500058B100BF00BF4846FBF7AEFE00BF00BF2A
:1045600046F2B010288000209CE74A4800780028D6
:104570000BDD00BF00BF4846FBF79EFE00BF00BF3B
:1045800046F66350288000208CE700BF4148007841
:10459000401C4049087000BF00BF4846FBF78CFE36
:1045A00000BF00BF00BF434607220021084601F0BC
:1045B000F5F900BF00BF00BFFBF77AFE814600BFE0
:1045C00000BF34480078401E3249087000BF00BF69
:1045D0004846FBF771FE00BF00BF00BFFFF788FA37
:1045E00000BF00BFFBF764FE814600BF00BF284844
:1045F000006890F8350020B1012826D0032834D176
:104600002CE0FCB122480068006C2060FCF7D2FE70
:104610001F490968096C401A1D490968C1F8A400BE
:104620001B480068D0F8A80019490968D1F8A410FF
:10463000884207D216480068D0F8A40014490968D7
:10464000C1F8A8000020288013E01CB110480068C1
:10465000006C206046F2A91028800AE00CB100200E
:10466000206047F2D920288003E046F62E6028809B
:1046700000BF00BF06480068476C00BF00BF484647
:10468000FBF71AFE00BF00BF38460BE78802002088
:1046900028030020D00200202DE9F04705460E46F1
:1046A00017461C464FF0000A2E480078002804DD0B
:1046B00047F259102080BDE8F0871EB946F2D52098
:1046C0002080F8E71FB946F2D5202080F3E700BF2D
:1046D00000BFFBF7EDFD824600BF00BF0DB92248C9
:1046E0000568286868B900BF00BF5046FBF7E4FDC5
:1046F00000BF00BF00203060386047F252102080B9
:10470000D9E795F83C0000F0010068B900BF00BF90
:104710005046FBF7D1FD00BF00BF0020306038607D
:1047200047F254102080C6E700BF00BF5046FBF799
:10473000C3FD00BF00BF4FF00008D5F8249003E090
:1047400009F1040908F10108D9F800000028F7D0A0
:10475000C6F80080A86BA0EB08003860002020801D
:1047600000BFA8E78802002028030020F0B5044617
:10477000DDE9055602EB850020F007004FF0000C44
:10478000071F3846C7F800C04FF4805C071F384643
:10479000C7F800C04FF0150C071F3846C7F800C017
:1047A0004FF0140C071F3846C7F800C04FF0130C29
:1047B000071F3846C7F800C04FF0120C071F3846D5
:1047C000C7F800C04FF0110C071F3846C7F800C0EB
:1047D0004FF0100C071F3846C7F800C04FF0090C07
:1047E000071F3846C7F800C04FF0080C071F3846AF
:1047F000C7F800C04FF0070C071F3846C7F800C0C5
:104800004FF0060C071F3846C7F800C04FF0050CE4
:10481000071F3846C7F800C04FF0040C071F384682
:10482000C7F800C04FF0030C071F3846C7F800C098
:104830004FF0020C071F3846C7F800C04FF0010CBC
:10484000071F3846C7F800C04FF0000C071F384656
:10485000C7F800C04FF0807C071F3846C7F800C07B
:10486000071F38463C60DFF85CC1071F3846C7F8B1
:1048700000C04FF0123C071F3846C7F800C04FF089
:10488000033C071F3846C7F800C04FF0023C071F23
:104890003846C7F800C0071F38463B60071F384638
:1048A00039604FF0310C071F3846C7F800C04FF091
:1048B000300C071F3846C7F800C04FF0290C071FFF
:1048C0003846C7F800C04FF0280C071F3846C7F815
:1048D00000C04FF0270C071F3846C7F800C04FF044
:1048E000260C071F3846C7F800C04FF0250C071FDD
:1048F0003846C7F800C04FF0240C071F3846C7F8E9
:1049000000C04FF0230C071F3846C7F800C04FF017
:10491000220C071F3846C7F800C04FF0210C071FB4
:104920003846C7F800C04FF0200C071F3846C7F8BC
:1049300000C04FF0190C071F3846C7F800C04FF0F1
:10494000180C071F3846C7F800C04FF0170C071F98
:104950003846C7F800C04FF0160C071F3846C7F896
:1049600000C04FF0113C071F3846C7F800C04FF099
:10497000103C071F3846C7F800C04FF0093C071F1E
:104980003846C7F800C04FF0083C071F3846C7F844
:1049900000C04FF0073C071F3846C7F800C04FF073
:1049A000063C071F3846C7F800C04FF0053C071FFC
:1049B0003846C7F800C04FF0043C071F3846C7F818
:1049C00000C0F0BDE56B00087FB505460C461248F7
:1049D000854203D147F25B1020807FBD0F4885429E
:1049E00003D147F25C102080F7E70D4800780028DB
:1049F0000BDD002000900190034602462946CDE9D8
:104A00000204084800F086FCE7E72146284602F049
:104A100057FB00BFE1E700005CD2002020D300205C
:104A2000880200205453555310B51D48006810B13A
:104A30001B4800688047FCF7BDFC04461948006825
:104A400019490968884215D016480068D0F89800BE
:104A5000201A14490968C1F8940012480068D0F877
:104A60009C0010490968D1F8941008440D49096860
:104A7000C1F89C000C480068C0F8984009480068DC
:104A8000D0F8B40009490968884205D2074800688F
:104A900004490968C1F8B40000200449086010BD49
:104AA0007C020020280300202C030020CC020020E0
:104AB0002DE9F04105460E46144600273F48007890
:104AC000002804DD47F275202080BDE8F0813C48D5
:104AD0000078002803DD46F663502080F5E736B104
:104AE000022E05D0042E0AD0082E09D101E000BF05
:104AF00000BF1DB947F27E202080E6E704E003E016
:104B000045F625602080E0E700BF00BF00BF00BF82
:104B1000FBF7CEFB074600BF00BF29480078401CCA
:104B20002749087000BF00BF3846FBF7C5FB00BF30
:104B300000BF00BF01202349096881F836002346E1
:104B4000324629461F48006802F076FB2088A8B14B
:104B500000BF00BF00BFFBF7ABFB074600BF00BFB5
:104B600017480078401E1649087000BF00BF38463D
:104B7000FBF7A2FB00BF00BF00BFA6E7114800681B
:104B800001F0F4F900BF00BF00BFFBF791FB07463F
:104B900000BF00BF0A480078401E0949087000BFE6
:104BA00000BF3846FBF788FB00BF00BF00BFFEF721
:104BB0009FFF0020208000BF87E7000088020020C0
:104BC000D0020020280300202DE9FF5F05460E4695
:104BD00017469846DDE90EA4002000907248007840
:104BE000002804DD47F275202080BDE8FF9F6F4854
:104BF0000078002803DD46F663502080F5E70AF0D0
:104C00000E0BBBF1000F09D0BBF1020F07D0BBF1B7
:104C1000040F10D0BBF1080F0ED101E000BF00BFA0
:104C2000B8F1000F06D12FB926B91DB947F27E2081
:104C30002080DAE704E003E045F625602080D4E731
:104C400000BF2AF01E0008B1012000E00020039000
:104C50000398012803D145F625602080C5E7CAF3F3
:104C6000001002900298C0B9B8F57A7F03D347F2DA
:104C70007B202080B9E73B2F03DD47F27A2020809C
:104C8000B3E73B2E03DD47F279202080ADE7632DAB
:104C900012DD47F278202080A7E742F20F708642AB
:104CA00003DD47F2792020809FE7B5F57A7F03DBAB
:104CB00047F27820208098E73D48D0F800904FF4E4
:104CC000FA70B0FBF9F0404400FB09F04FF47A7140
:104CD000B0FBF1F14FF461606843C6EB061200EBE4
:104CE0008200384400FB091001900198002856D03A
:104CF00000BF00BF00BFFBF7DBFA009000BF00BFA2
:104D00002A480078401C2949087000BF00BF00985D
:104D1000FBF7D2FA00BF00BF00BF01202549096898
:104D200081F8360023465A4622480199006802F06D
:104D300083FA2088A8B100BF00BF00BFFBF7B8FA14
:104D4000009000BF00BF19480078401E1749087046
:104D500000BF00BF0098FBF7AFFA00BF00BF00BF65
:104D600043E71448006801F001F900BF00BF00BF2D
:104D7000FBF79EFA009000BF00BF0C480078401E71
:104D80000A49087000BF00BF0098FBF795FA00BF02
:104D900000BF00BFFEF7ACFE0020208002E047F21B
:104DA0007E20208000BF20E788020020D002002063
:104DB000E8EB00082803002010B586B000F01EF8CC
:104DC000FCF7F8FA044605A800210091CDE901148A
:104DD00003900748007800EB4000064A02EB800190
:104DE00000231A46044800F095FA06B010BD0000F2
:104DF000B6020020F0D300205449434B10B50348BD
:104E0000006810B101480068804710BD8002002092
:104E10002448254825482648264827482748284822
:104E20002848294829482A482A482B482B482C48F2
:104E30002C482D482D482E482E482F482F483048C2
:104E40003048314831483248324833483348344892
:104E50003448354835483648364837483748384862
:104E60003848394839483A483A483B483B483C4832
:104E70003C483D483D483E483E483F483F48404802
:104E800040484148414842484248434843484448D2
:104E9000444845484548464846484748474800BF73
:104EA000704700002CEC000894ED00082EEC000880
:104EB0002FEC000830EC000834EC000838EC000857
:104EC00035EC000860EC000861EC000862EC0008BA
:104ED00064EC000866EC000868EC00086AEC000866
:104EE0006CEC00088CEC00088EEC000890EC0008DC
:104EF00092EC000894EC000896EC000898EC00088E
:104F0000C4EC0008C5EC0008C6EC0008C8EC0008BA
:104F1000CAEC0008CBEC0008CCEC0008CEEC000892
:104F2000D0EC0008D2EC0008D4EC0008D6EC000865
:104F3000D8EC000808ED000809ED00080AED0008AB
:104F40000BED00080CED00080EED000810ED000858
:104F500038ED000839ED00083AED00083BED000897
:104F60003CED00083EED000840ED000844ED00086F
:104F700045ED000846ED000847ED000848ED000843
:104F800049ED00084AED00084BED00084CED000823
:104F90004EED00084FED000850ED000852ED0008FE
:104FA00054ED000855ED000858ED00088CED0008A0
:104FB0008DED00088EED000890ED000892ED0008E0
:104FC0000021034A1160034A1180018070470000EC
:104FD000A0020020A40200202DE9F04F85B0044675
:104FE000894692469B46DDF838800020009000BF3D
:104FF00000BFFBF75DF9009000BF00BFBAF1000FE2
:105000000AD0BAF1010F0DD0BAF5004F05D06FF4F8
:105010000040504460B906E000BF206A40EA090041
:10502000206214E000BF206A20EA090020620EE03E
:1050300000BF00BF0098FBF73FF900BF00BF45F677
:105040002560A8F80000002005B0BDE8F08F00BF83
:10505000C4F824B004F1080001900198008958B9FF
:1050600000BF00BF0098FBF727F900BF00BF00207A
:10507000A8F80000206AE7E700BF61480078401CFC
:105080005F49087000BF00BF0098FBF715F900BF2B
:1050900000BF00BF01980768BD687FE07868029094
:1050A00095F8880000F00F0003900398012821D0A4
:1050B00002282ED0042802D0082836D10EE0206A1B
:1050C000D5F8801000EA0106D5F88000B04204D17E
:1050D0005A463146284600F097F859E0206AD5F83C
:1050E000801000EA010626B15A463146284600F0F3
:1050F0008BF84DE0D5F88000216A20EA0106D5F84A
:105100008000B04204D15A463146284600F07CF86F
:105110003EE0D5F88000216A20EA010626B15A4611
:105120003146284600F070F832E000BF00BF00BFF3
:10513000FBF7BEF8009000BF00BF31480078401E6A
:105140002F49087008460078A0B92E48008800282A
:1051500009DD00BF00BF0098FBF7AEF800BF00BF3D
:1051600000F032FF0DE000BF00BF0098FBF7A4F88D
:1051700000BF06E000BF00BF0098FBF79DF800BF2E
:1051800000BF00BF43F6FF20A8F8000000205BE747
:1051900000BF029F0FB1BD6800E00025002D7FF425
:1051A0007DAF00BF00BF00BFFBF782F8009000BFDB
:1051B00000BF13480078401E1149087000BF00BFAF
:1051C0000098FBF779F800BF00BF00BF0AF4004069
:1051D00008B9FEF78DFC00BF00BFFBF769F800902F
:1051E00000BF00BF206A049000BF00BF0098FBF71B
:1051F00063F800BF00BF0020A8F80000049823E770
:10520000D00200209402002070B504460E461546D8
:1052100034342665002060702070E560A078343C4E
:10522000082816D2DFE800F0040508090706101167
:1052300000BF00BF00BF0DE000BF204601F024FC0E
:10524000002084F8360005E000BF042084F8360012
:1052500000E000BF00BF204600F05BFC70BD000016
:10526000002400BF19E000BF00BFFBF721F804468F
:1052700000BF00BF09480068401C08490860084892
:105280000068401C0649086000BF00BF2046FBF7CD
:1052900013F800BF00BFFEF7C3FAE4E78402002062
:1052A000E802002010B58AB0044600200E490860CC
:1052B0000B2000210591CDE90704069108460B4912
:1052C00009680B4A12680B4B1B68CDE90132CDE926
:1052D00003103F200023084A08A100900C48FEF765
:1052E0005FFE0AB010BD00008402002090EB0008B1
:1052F0008CEB000888EB00086152000875432F4FC3
:10530000532D4949492049646C65205461736B00F1
:105310005CD200202DE9F84F04460D4616461F4684
:10532000DDE90BABDDF82890DDF83480002000903B
:1053300000BF00BFFAF7BCFF009000BF00BF2B48C2
:1053400000882B49098888423EDA28480088401C9A
:1053500026490880274800880988884203DA2348BC
:1053600000882449088024480068046022480068B6
:10537000856021480068C6601F48006807821E4893
:105380000068C0F814901C480068A0F818A01A48DB
:105390000068C0F81CB018480068406816490860EA
:1053A000012016490881164808604860002000F076
:1053B0007FFC1448007818B1124800781249087030
:1053C0000020A8F8000008E010480088401C0F49A1
:1053D000088044F25360A8F8000000BF00BF0098A6
:1053E000FAF76AFF00BF00BFBDE8F88F9402002003
:1053F0009CEB0008960200208C020020F0D30020D5
:1054000020D30020B6020020B8020020980200201D
:105410003EB5594800680068584A811A904279D0D0
:105420000FDC5749084400283ED056490844A8B12B
:1054300055490844002860D05449084400286AD1DE
:105440003FE053480844002850D0524908440028FF
:1054500062D0514908440028F1D110E002A8464D1D
:1054600000902D68EB69444D2D682A8B424D2D68C4
:105470006969414D2D68A868FFF7AEFD7AE002A981
:105480003D480068C0693C4DCDE900012D682B8B7B
:10549000394D2D682A8A384D2D68E968364D2D68BA
:1054A000A86800F035FC65E0334B1B68DA69324BC5
:1054B0001B68198B304B1B68986802AB00F04EFEDE
:1054C00058E002A92C480068C0692B4DCDE90001C5
:1054D0002D682B8B284D2D682A8A274D2D68E96869
:1054E000254D2D68A86801F0C9F943E022490968F3
:1054F000886802A901F0D6FA3CE01F4B1B68DA6904
:105500001D4B1B68198B1C4B1B68986802AB01F084
:1055100075FB2FE007E02CE017490968886802A9AD
:1055200001F0CEFD26E01D49097801EB41011C4A3E
:1055300002EB810000F09EFD0F48006802AB0021E5
:10554000C269184801F05AFB17480068401E164906
:1055500008600846006858B9144800680860FBF7FE
:1055600029FF044602AB22460021114801F046FB08
:1055700000E000BF00BF3EBD900200205449434BF5
:10558000ADBAB2BE0DF90BFAF2F8F7FF0006F6FF5E
:1055900000F7FDF700FFEFFF03FE0FFEB80200204B
:1055A000F0D30020B4D700202403002020030020E3
:1055B00078D80020002700BF4CE0002648E000BF5C
:1055C00000BFFAF775FE074600BF00BF22480088FB
:1055D00088B90020214908810860486000F07AFB02
:1055E00000BF00BF3846FAF767FE00BF00BFFEF7F6
:1055F0007FFA01262CE000BF00BF3846FAF75CFEB8
:1056000000BF00BFFBF7D6FE0546FFF701FFFBF723
:10561000D1FE441B12480068A04201D21048046029
:1056200000BF00BFFAF744FE074600BF00BF0D48A9
:10563000006840680B49086007480088401E06491A
:10564000088000BF00BF3846FAF736FE00BF00BF33
:10565000002EB4D0B1E7000094020020F0D3002067
:105660009C02002090020020F0B589B00546002081
:10567000314908803148006820B944F252602880DE
:1056800009B0F0BD2E480088022803DA44F25460C5
:105690002880F5E700202B49086028480468264642
:1056A000203600270CE0284820600020A060E06041
:1056B000208260612083666020342036781C87B2A7
:1056C0001F4800888742EEDB203C1C480668666065
:1056D0001E4806601E48066000201E4908801E49BC
:1056E00008801E48006818B944F255602880C7E752
:1056F0001B4800681B490968884203D244F256607F
:105700002880BDE7032000210591CDE9070506911A
:1057100013480068144A1268104B1B68CDE9030156
:10572000CDE9013200910B46104A11A11748FEF74E
:1057300037FC00BFA4E700009802002098EB0008A7
:105740009CEB00089C0200204E4F4E458C0200202E
:10575000900200209402002096020020A4EB000892
:10576000ACEB0008E4EB0008A8EB0008B555000816
:1057700075432F4F532D49494920495352205175A4
:10578000657565205461736B0000000020D3002014
:105790000021034A1160034A118001807047000014
:1057A000A8020020AC02002070B502460B4610464D
:1057B000114610315E1EB5B2002408E001600026DB
:1057C00046600681C66010301031661CB4B2AC422F
:1057D000F4DB0026066046600681C66070BD0000EE
:1057E00010B504461048006818B945F21E702080B4
:1057F00010BD0E48008818B945F21D702080F7E7EB
:105800000A48018808480068FFF7CEFF064800688C
:10581000074908600548008888800020C880088102
:10582000208000BFE4E70000C8EB0008C0EB0008E0
:10583000E4D3002010B5014648894B89002B17DDC1
:105840000A680C4B1B6813600A4C4B6823602346A4
:10585000DB884C891B1B074CE38023469B884C89C3
:105860002344044CA38000234B818B810B604B604D
:1058700010BD0000E4D3002001810022428182811A
:1058800002604260704700002DE9F0410D46DDE9FD
:105890000674B0F80AC0B0F80880C44505DB46F2CB
:1058A000935CA4F800C0BDE8F081DFF8D4C0BCF878
:1058B00004C0BCF1000F04D145F21D7CA4F800C067
:1058C000F1E7DFF8BCC0DCF80010DFF8B480D1F8F5
:1058D00000C0C8F800C0C446BCF804C0ACF1010C5C
:1058E000A8F804C0C446BCF806C00CF1010CA8F826
:1058F00006C0C446BCF808C0B8F80680C44507DA3C
:10590000DFF87CC0BCF806C0DFF87480A8F808C0D7
:10591000B0F80AC0BCF1000F06D1016041604FF041
:10592000010CA0F80AC017E003F0100CBCF1000F46
:1059300007D1066831604FF0000CC1F800C001606B
:1059400004E0D0F804C0C1F800C04160B0F80AC05B
:105950000CF1010CA0F80AC0B0F80CC0B0F80A8035
:10596000C44503DAB0F80AC0A0F80CC04D600A8143
:10597000CF604FF0000CA4F800C000BF93E7000018
:10598000E4D300200021034A1160034A1180018002
:1059900070470000B0020020B40200202DE9F04161
:1059A00005460C4616461F461548006880F83460C8
:1059B00000201349096881F835003946104800680D
:1059C00000F092FE6CB104F10808EC600122294657
:1059D0000B48006800F016F82946404600F066F8CB
:1059E00006E0002006490968C88705490968086378
:1059F00003480168204600F019F8BDE8F081000076
:105A00002803002010B5C287016300230AE00024A8
:105A10004C600C600C614C610C83CC61886020315F
:105A20005C1CA3B29342F2DB10BD000030B548B15C
:105A30004568C1F8C05000F10804226893681D6AE7
:105A4000C56113E091F83450022D02D0072D08D122
:105A500003E007A5C1F8C05007E007A5C1F8C05092
:105A600003E008A5C1F8C05000BF00BF30BD000072
:105A70005461736B205100005461736B2053656D4A
:105A8000000000002000000030B507A5C1F8C0509C
:105A900000F1080422681AB193681D6AC56101E02B
:105AA00001A5C56130BD000020000000F0B58E6882
:105AB00096F8375007893FB90127078100274F60C3
:105AC0000F600160416023E007897F1C0781026845
:105AD00006E0946894F83770AF4200DD02E0526847
